:020000040800F2
:1000000018070020890100085B120008651100082C
:10001000591200088F020008B51400080000000003
:100020000000000000000000000000009513000820
:1000300091020008000000005D12000897130008FC
:10004000A3010008A3010008A3010008A301000800
:10005000A3010008A3010008A3010008A3010008F0
:10006000A3010008A3010008A3010008A3010008E0
:10007000A3010008A3010008A3010008A3010008D0
:10008000A3010008A3010008A3010008A3010008C0
:10009000A3010008A3010008A3010008A3010008B0
:1000A000A3010008A3010008A3010008A3010008A0
:1000B000A3010008A3010008A3010008A301000890
:1000C000A3010008A3010008A3010008A301000880
:1000D000A3010008A3010008A3010008A301000870
:1000E000A3010008A3010008A301000800F002F822
:1000F00000F03AF80AA090E8000C82448344AAF188
:100100000107DA4501D100F02FF8AFF2090EBAE885
:100110000F0013F0010F18BFFB1A43F0010318473B
:10012000D8160000F8160000103A24BF78C878C12D
:10013000FAD8520724BF30C830C144BF04680C60ED
:10014000704700000023002400250026103A28BF35
:1001500078C1FBD8520728BF30C148BF0B60704739
:100160001FB51FBD10B510BD00F058F81146FFF7C0
:10017000F7FF01F0DDFA00F076F803B4FFF7F2FFC5
:1001800003BC00F07DF8000009488047094800479B
:10019000FEE7FEE7FEE7FEE7FEE7FEE7FEE7FEE737
:1001A000FEE7FEE704480549054A064B7047000094
:1001B000F9130008ED0000081801002018070020BE
:1001C00018030020180300204FF0000200B513466A
:1001D00094469646203922BFA0E80C50A0E80C5067
:1001E000B1F12001BFF4F7AF090728BFA0E80C5018
:1001F00048BF0CC05DF804EB890028BF40F8042B11
:1002000008BF704748BF20F8022B11F0804F18BF7D
:1002100000F8012B7047704770477047754600F033
:100220002BF8AE4605006946534620F00700854688
:1002300018B020B5FFF7B6FFBDE820404FF000062C
:100240004FF000074FF000084FF0000B21F00701BE
:10025000AC46ACE8C009ACE8C009ACE8C009ACE801
:10026000C0098D46704710B50446AFF300802046A4
:10027000BDE81040FFF781BF00487047B400002080
:1002800001491820ABBEFEE7260002007047FEE7DA
:10029000704772B6FEE7000070B5044600F004F93E
:1002A0000546601C02D004480078044400F0FCF8C5
:1002B000401BA042FAD370BD040000202DE9F84F86
:1002C000DFF8B8910024A9F1040B23460F2709F1A8
:1002D000040AABF1040EC9E00125A5402A40AA4258
:1002E0007DD1674ED1F804C0ACEB0608B44532D0DE
:1002F00014DCBCF1030F3AD009DCBCF1000F2AD0AA
:10030000BCF1010F1CD0BCF1020F31D11DE0BCF1DA
:10031000110F17D0BCF1120F2AD119E0B8F5881FC0
:1003200019D006DCB8F5803F15D0B8F5801F1FD175
:1003300011E0B8F5001F0ED0B8F5041F18D10AE07F
:10034000CB6815E0CB681B1D12E0CB6808330FE0CB
:10035000CB680C330CE08B682BB1012B4FF00803FA
:1003600003D0456104E0042302E0056100E00023BE
:10037000FF2A01D8064601E000F104064FEA840591
:1003800001D9A5F12005D6F8008007FA05FC28EA76
:100390000C0803FA05F548EA0508C6F800804D6820
:1003A000ED0062D5374DAE6946F00106AE61AD692C
:1003B00024F0030605F001050095334D06EB050C0E
:1003C000DCF80850A607360F07FA06F825EA0805F4
:1003D000DFF8B880404503D14FF0000817E044E053
:1003E000DFF8AC80404502D14FF001080FE0DFF8A4
:1003F000A480404502D14FF0020808E0DFF8988061
:10040000404502D14FF0030801E04FF0040808FA1C
:1004100006F848EA0508CCF808804D68D9F800606D
:10042000ED024D4601D5164300E096432E604D681F
:10043000DAF80060AD02554601D5164300E0964358
:100440002E604D68DBF80060AD035D4601D51643B4
:1004500000E096432E604D68DEF80060ED037546BF
:1004600001D5164300E096432E60641C0D682A46B1
:10047000E5407FF431AFBDE8F88F0000080401408B
:10048000000011100010024000000140000801406F
:10049000000C014000100140001401400AB101614C
:1004A00070470904FBE700000148806870470000BE
:1004B000040000200248816802781144816070477E
:1004C00004000020074810B5016841F010010160E8
:1004D000032000F05FF80F2000F006F800F024F889
:1004E000002010BD0020024070B50D4D04464FF4B1
:1004F0007A712878B1FBF0F00A490968B1FBF0F095
:1005000000F0B1FD48B9102C07D200222146501E40
:1005100000F020F800206C6070BD012070BD00006C
:100520000400002010000020094808B5816941F04E
:1005300001018161816901F001010091C16941F00E
:100540008051C161C06900F08050009008BD00007A
:1005500000100240F0B40E4B1B680C46C3F302239C
:10056000C3F10705042D00D90425191D072901D25F
:10057000002300E0DB1E012606FA05F1491E21409A
:1005800099409E40761E16403143F0BC01F0C0B841
:100590000CED00E0064900F0070208684FF6FF0383
:1005A000184040EA0220034A1043086070470000E8
:1005B0000CED00E00000FA052DE9F0470F460500BC
:1005C00061D0434E306800F00700B84209D230686D
:1005D00020F0070038433060306800F00700B84270
:1005E00051D128683B4C810712D5400703D560687C
:1005F00040F4E06060602878000703D5606840F44C
:10060000605060606068A96820F0F0000843606096
:100610002878C00728D06868012810D021680228EF
:1006200010D0890700292EDA616821F00301014307
:100630006160FFF739FF804641F288390DE021689B
:100640008903EFE78901EDE7FFF72EFFA0EB080133
:10065000494502D90320BDE8F0876068696800F069
:100660000C00B0EB810FEFD1306800F00700B8420A
:100670000BD9306820F0070038433060306800F054
:100680000700B84201D00120E5E72878400705D5EA
:100690006068E96820F4E06008436060287800073B
:1006A00006D56068296920F4605040EAC1006060A6
:1006B00000F038F86168084AC1F30311515CC84082
:1006C0000649086006480068FFF70EFF0020C2E7F1
:1006D0000020024000100240DE1700081000002039
:1006E000080000200448054900684968044AC1F32D
:1006F0000221515CC84070471000002000100240E9
:10070000EE1700080448054900684968044AC1F327
:10071000C221515CC8407047100000200010024008
:10072000EE1700080E4A51680E4801F00C03042B26
:1007300011D0082B0FD10C48C1F38343C903C05C0F
:100740000AD55168084AC1F34041921E515C054ADE
:100750005043B0FBF1F07047044948437047000034
:100760000010024000127A00CE17000800093D0078
:100770002DE9F84F040070D02078C04DC00749D053
:100780006868C0F38100012807D06868C0F3810061
:10079000022809D16868C00306D52868800339D5C6
:1007A00060680028E7D035E06068B0F5803F0BD086
:1007B00010B1B0F5A02F11D0286820F48030286047
:1007C000286820F4802002E0286840F48030286007
:1007D000606890B1FFF768FE06460AE0286840F4BA
:1007E00080202860F0E700BFFFF75EFE801B6428D2
:1007F00073D828688003F7D50CE0FFF755FE06464E
:1008000005E000BFFFF750FE801B6428F0D8286881
:100810008003F7D420789A4E80074FF001094FF0FB
:10082000000839D5686810F00C0F07D06868C0F36D
:100830008100022809D16868C00306D428688007AF
:1008400014D52069012808D110E02069B0B1C6F89C
:100850000090FFF729FE074605E00AE1FFF724FEB6
:10086000C01B0228C4D828688007F7D528686169AA
:1008700020F0F80040EAC10028600DE0C6F80080D2
:10088000FFF712FE074604E0FFF70EFEC01B02282A
:1008900023D828688007F7D4207800072CD579481A
:1008A000A169D9B1C0F80090FFF7FEFD074604E04A
:1008B000FFF7FAFDC01B02280FD8686A8007F7D53A
:1008C00071484FF4FA510068B0FBF1F0009000BF9E
:1008D0000098411E0091FAD20EE080E0C0F800803E
:1008E000FFF7E2FD074604E0FFF7DEFDC01B02282C
:1008F00075D8686A8007F7D42078400760D5E86922
:100900000027C00008D4E86940F08050E861E86939
:10091000012700F0805000905C480168C90513D49D
:100920000168834641F480710160FFF7BDFD824696
:1009300006E000BFFFF7B8FDA0EB0A0064284ED820
:10094000DBF80000C005F5D5E06801280AD008B141
:10095000052813D0286A20F001002862286A20F0B8
:10096000040002E0286A40F001002862E06841F2D9
:10097000883B98B1FFF798FD82460BE0286A40F06B
:1009800004002862EEE700BFFFF78EFDA0EB0A012E
:1009900059455AD8286A8007F6D50CE0FFF784FD40
:1009A000824605E0FFF780FDA0EB0A0159454CD8CF
:1009B000286A8007F6D41FB1E86920F08050E8610A
:1009C000E06988B36968C1F38101022944D0022833
:1009D000C6F8608004D0FFF767FD044638E034E0D5
:1009E000FFF762FD074604E0FFF75EFDC01B02282B
:1009F0002BD828688001F7D4206AB0F5803F05D154
:100A00006868A16820F4003008436860D4E90801F0
:100A10000843696821F4741108436860C6F860905F
:100A2000FFF742FD044606E025E000BFFFF73CFD6E
:100A3000001B022809D828688001F7D51BE000BFF9
:100A4000FFF732FD001B022802D90320BDE8F88F12
:100A500028688001F4D40EE00128F7D06868226A83
:100A600000F48031914204D1616A00F47010884230
:100A700001D00120EAE70020E8E700000010024072
:100A800000004242800442421000002000700040FA
:100A900070B5040009D0606A002540B12561656128
:100AA000A56294F8510040B10CE0012070BD60686F
:100AB000B0F5827FF4D0E561F2E784F8505020462B
:100AC00000F040F8022084F851002068016821F00D
:100AD00040010160A088218900F4827001F4044182
:100AE0000843A18901F400610843217C01F002015F
:100AF0000843217D01F001010843218B01F40071BD
:100B00000843217F01F03801084394F8201001F0D8
:100B100080010843218D01F40051084321680860D9
:100B2000A069042101EA1040216848602068C16979
:100B300021F40061C1616565012084F85100002045
:100B400070BD000030B585B000240094019402947B
:100B5000039400681449884223D11448816941F400
:100B600080518161816901F480510491816941F072
:100B70000401816180690E4D00F004000490A02002
:100B80000090022001900320039069462846FFF759
:100B900095FB4020CDE90004694628460294FFF702
:100BA0008DFB05B030BD0000003001400010024058
:100BB000000801402DE9F84F044690F8510098468E
:100BC00016460F460025012801D0022598E06068EE
:100BD0004FF0040BB0F5827F01D1A068F8B194F812
:100BE0005000012826D04FF0010984F85090FFF7FB
:100BF0005BFC8246002F7FD0002E7DD084F851B060
:100C000000206065A763A687E6872063A086E0864C
:100C100020646064A068B0F5004F0DD016E084F841
:100C200051B013460A462046CDF8008000F024F962
:100C3000BDE8F88F0220FBE72068016821F0400141
:100C400001602068016821F480410160206801682A
:100C5000490603D4016841F040010160E068D8B161
:100C60003BE020688168C90709D0007BA16B087050
:100C7000A06B401CA063E08F401EE0870CE0FFF7F4
:100C800013FCA0EB0A01414503D3B8F1FF3F03D0A9
:100C900006E0B8F1000F03D0E08F0028E1D11FE09B
:100CA00003252BE020688168C90709D0C068A16BC3
:100CB0000880A06B801CA063E08F401EE0870CE0E2
:100CC000FFF7F2FBA0EB0A01414503D3B8F1FF3F68
:100CD00003D0E5E7B8F1000FE2D0E08F0028E1D1C2
:100CE00052464146204600F0BAFA08B1202060651D
:100CF000606D00E000E008B1012501E084F851904A
:100D0000002084F85000284692E72DE9F84F044669
:100D100090F850000026984615468A4601280CD0C7
:100D2000012784F85070FFF7BFFB814694F851000B
:100D3000B346012804D002269AE00220BDE8F88FCD
:100D4000BAF1000F6FD0002D6DD0032084F8510050
:100D5000C4F854B0C4F830A0A586E586C4F838B00D
:100D6000A4F83CB0A4F83EB0C4F844B0C4F840B015
:100D7000A068B0F5004F09D12068016821F040015A
:100D800001602068016841F48041016020680168C9
:100D9000490603D4016841F040010160E068B0F504
:100DA000006F606803D058B3012D29D049E008B125
:100DB000012D1FD1206B21680088C86006E02068E3
:100DC0008168890709D5216B0988C160206B801C67
:100DD0002063E08E401EE0860CE0FFF765FBA0EB91
:100DE0000901414503D3B8F1FF3F03D006E0B8F154
:100DF000000F03D0E08E0028E1D125E0032635E086
:100E0000206B21680078087306E0206881688907F4
:100E10000AD5216B09780173206B401C2063E08E9A
:100E2000401EE0860DE01FE0FFF73EFBA0EB09014E
:100E3000414503D3B8F1FF3F03D0DFE7B8F1000F1E
:100E4000DCD0E08E0028E0D14A464146204600F042
:100E500034FA08B120206065A06818B92068C1681C
:100E600080680090606D08B1012601E084F851703F
:100E700084F850B0304661E72DE9FF4F81B0044659
:100E800090F8500000260E9F1D4693464FF0010932
:100E900001280FD04FF0010A84F850A0FFF704FB9F
:100EA000804694F85100616801280DD0B1F5827F29
:100EB00008D103E0022005B0BDE8F08FA16809B9B0
:100EC000042801D00226C9E00298002865D0BBF1B1
:100ED000000FFBD0002DF9D094F85100042802D067
:100EE000052084F8510000206065C4F838B0E5871B
:100EF000A58702992163E586A58620646064206841
:100F00000168490603D4016841F040010160E068CE
:100F1000B0F5006F606803D0F0B3012D47D081E0D9
:100F200008B1012D3CD1206B21680088C860206B7E
:100F3000801C2063E08E401EE08631E020688168DE
:100F400089070FD5E18E69B1B9F1010F0AD1216B83
:100F50000988C160206B801C2063E08E401EE08603
:100F60004FF0000920688168C9070CD0E18F51B1AA
:100F7000C068A16B0880A06B801CA063E08F401E3E
:100F8000E0874FF00109FFF78FFAA0EB0800B842A5
:100F900006D3781C04D001E009E05BE003265BE0A7
:100FA000E08E0028CAD1E08F0028C7D140E0206B36
:100FB000216800780873206B401C2063E08E401E7F
:100FC000E0862FE02068816889070FD5E18E69B13E
:100FD000B9F1010F0AD1216B09780173206B401C14
:100FE0002063E08E401EE0864FF000092068816893
:100FF000C9070CD0E18F51B1C068A16B0870A06B1C
:10100000401CA063E08F401EE0874FF00109FFF70E
:101010004BFAA0EB0800B84202D3781C02D0BAE722
:10102000002FB8D0E08E0028CCD1E08F0028C9D1A5
:1010300042463946204600F040F918B101262020EA
:1010400060650BE0A06818B92068C16880680090EE
:10105000606D08B1012601E084F851A0002084F8F9
:101060005000304627E710B5401EB0F1807F01D315
:10107000012010BD4FF0E02460610F21601700F0E7
:1010800047FB0020A06107202061002010BD70B543
:10109000040004D094F84100002510B106E00120BE
:1010A00070BD84F84050204600F024F8242084F8D5
:1010B00041002068C16821F40051C160204600F061
:1010C0009DF92068016921F490410161206841691E
:1010D00021F02A0141612068C16841F40051C160DA
:1010E0006564202084F8410084F842006563002094
:1010F00070BD000030B585B00024009401940294C6
:10110000039400681449884224D11448816941F449
:1011100080418161816901F480410491816941F0DC
:101120000401816180690E4D00F0040004904FF4C9
:101130000070009002200190032003906946284629
:10114000FFF7BCF82815CDE900046946284602944B
:10115000FFF7B4F805B030BD003801400010024080
:1011600000080140FEE7000070B586B00024184872
:101170000094019402940394816941F020018161FB
:10118000816901F020010491816941F004018161CC
:10119000816901F004010491816941F008018161D4
:1011A00080690C4E00F0080040F2013504900022E6
:1011B00029463046FFF772F901200095CDE9010478
:1011C0000220039069463046FFF778F806B070BDFC
:1011D00000100240000C0140104810B50E4901609B
:1011E0004FF48271416000218160C1604FF4007250
:1011F0000161C0E905120822C0E90721416281624C
:101200000A21C162FFF744FC002803D0BDE810406A
:10121000FFF73FB810BD000000300140140000206F
:101220000C4810B50A4901604FF4E13141600021DA
:1012300081600C22C160C0E904128161C161FFF7C5
:1012400026FF002803D0BDE81040FFF722B810BDEC
:10125000003801406C000020FEE7FEE77047F8B55B
:10126000044640684FF48273984217D1A0684FF447
:101270008065B0F5004F01D0A8420FD12068066804
:1012800026F0400606606068984207D1A068A84230
:1012900004D100920B460022012103E000920B468C
:1012A00000228021204600F019F8002804D0606D4B
:1012B00040F0200060650320F8BD38B50B46009271
:1012C00004460022802100F009F8002804D0606D57
:1012D00040F020006065032038BD00002DE9F84390
:1012E0001E46914688460446089DFFF7DDF8401BE0
:1012F000351AFFF7D9F8074625480068C0F3CB3008
:10130000684338E0701C37D0FFF7CEF8C01BA84206
:1013100003D215B1009860B32CE02068416821F039
:10132000E00141606068B0F5827F0BD1A068B0F544
:10133000004F02D0B0F5806F04D12068016821F021
:1013400040010160A06AB0F5005F09D12068016822
:1013500021F4005101602068016841F400510160EE
:10136000012084F85100002084F850000320BDE8DB
:10137000F8830025401E00902068816838EA01004B
:1013800004D000214945BDD10020F0E70121F9E753
:10139000100000207047FFF78DB830B58FB02821BE
:1013A0006846FEF711FF14210AA8FEF70DFF012180
:1013B0000804CDE900100024029402250491CDE92F
:1013C00007504FF4E01009906846FFF7D1F908B1D3
:1013D00072B6FEE70F20CDE90A054FF48060CDE933
:1013E0000C4002210AA80E94FFF7E6F8002801D06D
:1013F00072B6FEE70FB030BD7047000070B504460E
:1014000000680169E26821F44051114301612169DA
:10141000A0680843616908432168CA6841F20C6307
:101420009A430243CA6020684169A26921F440716D
:10143000114341611E492068884202D1FFF762F9D9
:1014400001E0FFF74FF900EBC00101EB001260680B
:1014500064218000B2FBF0F3B3FBF1F36FF01806E8
:101460007343B2FBF0F5B2FBF0F605EB83053223D4
:1014700003EB0515B5FBF1F5B6FBF1F605F0F0054C
:1014800005EB0615B2FBF0F6B2FBF0F0B0FBF1F0A5
:101490006FF01802504306EB800003EB0010B0FB26
:1014A000F1F0216800F00F002844886070BD000052
:1014B00000380140FEE700001CB520218DF8001027
:1014C000010B8DF80110010900038DF80210000ACC
:1014D0008DF8030000208DF8040000F0C3F800F040
:1014E000B9F80E4C002201212046FEF7D7FF0A234F
:1014F000012269460A48FFF708FC4FF47A63032289
:1015000007480DF10201FFF700FC012211462046B9
:10151000FEF7C4FF00F09EF81CBD0000000C014067
:101520001400002010B5012211460748FEF7B6FF4F
:1015300000F044F805490880A0F56F41163901D044
:10154000002010BD012010BD000C01400000002053
:101550007CB5054603208DF80000080E8DF80100CB
:10156000080C8DF80200080A124E14468DF803008C
:101570008DF80410002201213046FEF78FFF0A2368
:10158000012269460C48FFF7C0FB1E2303220A48CC
:101590000DF10201FFF7B9FB04EB84004300224682
:1015A00029460548FFF706FB012211463046FEF7A3
:1015B00075FF7CBD000C01401400002030B585B0E3
:1015C00090200D4D8DF80400002201212846FEF7E1
:1015D00065FF0A200090062303AA01A90748FFF728
:1015E0004BFCBDF81000012244BA11462846FEF714
:1015F00055FF05B0204630BD000C0140140000200E
:101600003EB50521012803D0022804D0032804D0C8
:101610008DF8041004E0352000E015208DF804005A
:101620000A4C002201212046FEF738FF0A200090D4
:10163000022302AA01A90648FFF71EFC0122114657
:101640002046FEF72BFF9DF809003EBD000C01402F
:101650001400002010B50120FFF7D2FFC007FAD117
:1016600010BD000038B50620094C8DF8000000229E
:1016700001212046FEF712FF0A2301226946054890
:10168000FFF743FB012211462046FEF707FF38BD56
:10169000000C0140140000207CB5044602208DF8A7
:1016A0000000080E8DF80100080C8DF80200080AF1
:1016B00015468DF803008DF80410FFF7D3FFFFF7F0
:1016C000C9FF114E002201213046FEF7E7FE0A2332
:1016D000012269460D48FFF718FB4FF47A73032285
:1016E0000A480DF10201FFF710FB4FF47A632A4616
:1016F00021460648FFF709FB012211463046FEF756
:10170000CDFEFFF7A7FF7CBD000C014014000020B8
:101710000907090E002804DB00F1E02080F800141E
:10172000704700F00F0000F1E02080F8141D7047B2
:1017300088B0FEF7C7FEFFF730FEFFF715FDFFF795
:101740004BFDFFF76DFD1CA30DF1100C0FCB8CE8CA
:101750000F001D4D00244FF400774FF47A78AE153A
:1017600040F6B839FFF7DEFE012239462846FEF77B
:1017700095FE002231462846FEF790FE4046FEF7D1
:101780008BFD2046FFF798FE0D22214604A8FFF7A7
:1017900083FF0D2221466846FFF7DAFE9DF804001C
:1017A0005328DFD1012231462846FEF777FE48460E
:1017B000FEF772FDD6E700004C4C542053504920F0
:1017C0005445535400000000000C01400102020384
:1017D0000405060708090A0B0C0D0E0F1010000077
:1017E00000000000000001020304060708090000D1
:1017F0000000010203040000181800080000002087
:1018000014000000280100082C1800081400002013
:10181000040700004401000800000000010000006F
:0C18200010000000000000000024F40094
:04000005080000ED02
:00000001FF
